:0400000063EF00F0BA
:060008005582B0ED0BF083
:100018005580D8CF13F0E8CF14F0E0CF15F0FACF21
:1000280016F0FBCF17F0E9CF18F0EACF19F0E1CFBF
:100038001AF0E2CF1BF0D9CF1CF0DACF1DF0F3CFC6
:100048001EF0F4CF1FF0F6CF20F0F7CF21F0F8CF55
:1000580022F0F5CF23F055C024F056C025F057C044
:1000680026F058C027F027C058F026C057F025C002
:1000780056F024C055F023C0F5FF22C0F8FF21C078
:10008800F7FF20C0F6FF1FC0F4FF1EC0F3FF1DC01E
:10009800DAFF1CC0D9FF1BC0E2FF1AC0E1FF19C07C
:1000A800EAFF18C0E9FF17C0FBFF16C0FAFF15C02A
:1000B800E0FF14C0E8FF13C0D8FF55901000DBEF35
:0200C8000DF039
:101000000001000A006400E8031027416C61726D62
:101010003A20253032753A253032753A253032750E
:101020000054696D653A20253032753A25303275A5
:101030003A2530327500253032753A253032753A0E
:1010400025303275202573004D61736120262053B1
:10105000616C73616265656C00416C61726D2053F7
:10106000746174653A2000286E756C6C29004865BF
:101070006C6C6F0A004F4E20004F4646004F4E00EA
:01108000006F
:101082000DEC0EF047EC0EF08AEC0EF022EC0CF0B8
:10109200BFEC0DF097EC0EF06E0E296E100E2A6E5C
:1010A20053EC0CF0040082EC0DF0A1EC0DF063ECBB
:1010B2000DF0B0EC0EF00001B86F5B0EB819D8A4B9
:1010C20002D0010EBED1720EB819D8A408D0C40540
:1010D200D8A405D0020EC46F010EC26FE3D7740EFE
:1010E200B819D8A408D0020EC419D8A404D0030E8B
:1010F200C46F010E39D0610EB819D8A40DD0020EFA
:10110200C419D8A409D0C205D8A406D0030EC46F4E
:10111200000EC26F010E57D05D0EB819D8A455D07B
:10112200030EC419D8A451D0000EC46FC305D8A4AD
:101132001DD0AD0E346E000E356E270E366E100EBB
:10114200376ECBC038F0396ACAC03AF03B6AC9C0C0
:101152003CF03D6A24EC0AF0AD0E296E000E2A6EB8
:1011620053EC0CF0000E0001C36F9CD7C105D8A44C
:1011720099D7C551D8A404D0790EB66F100E03D0FA
:101182007D0EB66F100EB76FA00E346E000E356E68
:10119200360E366E100E376EC8C038F0396AC7C0C8
:1011A2003AF03B6AC6C03CF03D6AB6C03EF0B7C0FA
:1011B2003FF024EC0AF0A00E296E000E2A6E53ECCA
:1011C2000CF0000E0001C16F6DD7770EB819D8A4CC
:1011D20008D0C405D8A405D0020EC46F010EBF6F9B
:1011E20061D7570EB819D8A408D0C405D8A405D021
:1011F200020EC46F010EC06F55D7680EB819D8A47D
:1012020009D0020EC419D8A405D0030EC46F010E72
:10121200BD6F48D76D0EB819D8A409D0020EC419F3
:10122200D8A405D0030EC46F010EBC6F3BD7730E5A
:10123200B819D8A409D0020EC419D8A405D0030E37
:10124200C46F010EBB6F2ED7610EB819D8A409D096
:10125200020EC419D8A405D0030EC46F010EBA6FD2
:1012620021D7B85159EC0EF028502910D8B409D022
:10127200030E0001C419D8A404D0B8C0BEF0040EF5
:10128200E0D00001B85159EC0EF028502910D8B422
:10129200CED0040E0001C419D8A4C9D0050EC46F63
:1012A200BF05D8A415D0BD05D8A412D0000EBF6FBB
:1012B200000EBD6F320EBE61F5D6330EB861F2D6A6
:1012C200BE51D00F0A0DF350B825D00FCB6FEAD61E
:1012D200BF05D8A415D0BC05D8A412D0000EBF6F8C
:1012E200000EBC6F360EBE61DDD63A0EB861DAD69C
:1012F200BE51D00F0A0DF350B825D00FCA6FD2D607
:10130200BF05D8A415D0BB05D8A412D0000EBF6F5C
:10131200000EBB6F360EBE61C5D63A0EB861C2D69C
:10132200BE51D00F0A0DF350B825D00FC96FBAD6EF
:10133200C005D8A415D0BD05D8A412D0000EC06F28
:10134200000EBD6F320EBE61ADD6330EB861AAD6A5
:10135200BE51D00F0A0DF350B825D00FC86FA2D6D8
:10136200C005D8A415D0BC05D8A412D0000EC06FF9
:10137200000EBC6F360EBE6195D63A0EB86192D69B
:10138200BE51D00F0A0DF350B825D00FC76F8AD6C1
:10139200C005D8A415D0BB05D8A412D0000EC06FCA
:1013A200000EBB6F360EBE617DD63A0EB8617AD69C
:1013B200BE51D00F0A0DF350B825D00FC66F72D6AA
:1013C200C005D8A46FD6BA05D8A46CD6000EC06FDB
:1013D200000EBA6F300EBE19D8A416D0300EB8194E
:1013E200D8A412D0C505D8A45DD6B7EC0EF0000182
:1013F200C551D8A402D0010E01D0000EC56F000E57
:10140200B96FB4EC0EF04ED60001C551D8A44AD63D
:10141200B7EC0EF00001C551D8A402D0010E01D0E4
:10142200000EC56F000EB96FB4EC0EF03BD65D0E28
:101432000001B819D8A436D6050EC419D8A432D6DC
:10144200000EC46F2FD6380E486E000E496E73D14F
:10145200250E5018D8B409D034C0D9FF35C0DAFFF0
:1014620050C0DFFF344A352A66D1000E4F6E000E9F
:101472004E6E000E446E03D04484364A372A36C07C
:10148200F6FF37C0F7FFF86A0800F550300AD8B403
:10149200F3D736C0F6FF37C0F7FFF86A0800F550F9
:1014A2007BEC0EF0D8A09DD0000E4F6E000E4E6E5B
:1014B2004EC028F04FC029F0000E2B6E0A0E2A6E85
:1014C20021EC0EF028C04EF029C04FF0D00E406E35
:1014D200FF0E416E36C0F6FF37C0F7FFF86A08000C
:1014E200F550426E436A40504226415043224250D8
:1014F2004E2643504F22364A372A36C0F6FF37C0AF
:10150200F7FFF86A0800F5507BEC0EF0D8A069D01E
:10151200CFD748C0D9FF49C0DAFFDECF4AF0DDCFCE
:101522004BF0020E4826000E49224A504B10D8A416
:1015320004D0670E4A6E100E4B6E000E4D6E000EFA
:101542004C6E02D04C4A4D2A4C504A24406E4D50AB
:101552004B20416E40C0F6FF41C0F7FFF86A080019
:10156200F5500009D8A4EED74E504C5C4F504D5860
:10157200D8B005D04C504E5E4D504F5A0DD0000E93
:101582004F6E000E4E6E08D034C0D9FF35C0DAFF60
:10159200200EDF6E344A352A4E06D8A04F064E285A
:1015A200F3E14F28D8B411D0EFD74AC0F6FF4BC0B1
:1015B200F7FFF86A34C0D9FF35C0DAFF0800F5CF6B
:1015C200DFFF4A4A4B2A344A352A4C06D8A04D0638
:1015D2004C28EBE14D28D8B4AED0E7D7C00E441268
:1015E20015D036C0F6FF37C0F7FF364A372AF86AF9
:1015F2000800F5CF50F05050000AD8B4A9D0730AB1
:10160200D8B487D7060AD8B4E9D795D048C0D9FF4D
:1016120049C0DAFFDECF45F0DDCF46F0020E4826A4
:10162200000E4922010E506E050E5018D8B415D086
:101632005050020D010EF324F66E100EF420F76ED8
:10164200F86A000EF8220900F550455C0900F550D1
:101652004658D8A002D0502AE7D7800E50BE7F0E3F
:10166200406E4E50505C4F50800A4058D8B007D060
:1016720050504E5E000E50BEFF0E4F5A04D0000E68
:101682004F6E000E4E6E44A410D04E504F10D8B480
:101692001FD034C0D9FF35C0DAFF300EDF6E344AB6
:1016A200352A4E06D8A04F06F0D74E504F10D8B468
:1016B2000FD034C0D9FF35C0DAFF200EDF6E344AB6
:1016C200352A4E06D8A04F064E504F10D8A4F1D757
:1016D20050C047F02CD04750020D010EF324F66E95
:1016E200100EF420F76EF86A000EF8220900F5CF0A
:1016F2002AF00A00F5CF2BF045C028F046C029F0A9
:10170200D4EC0CF028C02FF029C030F0000E326E5D
:101712000A0E316E21EC0DF02F50300F506E34C096
:10172200D9FF35C0DAFF50C0DFFF344A352A4706F9
:101732004728D8A4D0D736C0F6FF37C0F7FF364ABD
:10174200372AF86A0800F5CF50F05050D8A480D656
:1017520034C0D9FF35C0DAFF000EDF6E120006007A
:10176200FACF01F0FBCF02F0E9CF03F0EACF04F0A9
:10177200E1CF05F0E2CF06F0D9CF07F0DACF08F0DB
:10178200F3CF09F0F4CF0AF0F6CF0BF0F7CF0CF05D
:10179200F8CF0DF0F5CF0EF055C00FF056C010F097
:1017A20057C011F058C012F0F2A20FD0F292BDEC65
:1017B2000EF00001C551D8A402D0010E01D0000ED6
:1017C200C56F000EB96FBAEC0EF0F2A414D0F29409
:1017D2000001C92B3B0EC9650ED0000EC96FCA2B82
:1017E2003B0ECA6508D0000ECA6FCB2B170ECB6515
:1017F20002D0000ECB6F12C058F011C057F010C0CB
:1018020056F00FC055F00EC0F5FF0DC0F8FF0CC02A
:10181200F7FF0BC0F6FF0AC0F4FF09C0F3FF08C0D0
:10182200DAFF07C0D9FF06C0E2FF05C0E1FF04C02E
:10183200EAFF03C0E9FF02C0FBFF01C0FAFF5592B5
:10184200110084948492000E296E190E286E34ECD5
:101852000EF0010E326E030E326401D00BD0030E75
:101862006AEC0EF0000E296E060E286E34EC0EF0B5
:10187200322AF1D7020E6AEC0EF0000E326E030E1F
:10188200326401D012003250010D510EF324D96E90
:10189200000EF420DA6EDF50306E000EFDEC0CF01C
:1018A200322AEDD715D029C0F6FF2AC0F7FF000E65
:1018B200F86E0F0EF76403D00800F55005D0F6CF8E
:1018C200D9FFF7CFDAFFDF50A3EC0EF0294A2A2A1C
:1018D20029C0F6FF2AC0F7FF000EF86E0F0EF7645C
:1018E20003D00800F55005D0F6CFD9FFF7CFDAFFC5
:1018F200DF500009D8B41200D6D715D036C0F6FF93
:1019020037C0F7FF000EF86E0F0EF76403D0080021
:10191200F55005D0F6CFD9FFF7CFDAFFDF50A9ECAB
:101922000CF0364A372A36C0F6FF37C0F7FF000EF2
:10193200F86E0F0EF76403D00800F55005D0F6CF0D
:10194200D9FFF7CFDAFFDF500009D8B41200D6D79B
:10195200356E1ED0010E306E000EFDEC0CF0000E46
:10196200296E020E286E34EC0EF01200020E326E58
:10197200010E42EC0DF01200100E306E000EFDEC66
:101982000CF0120035C030F0010EFDEC0CF012002C
:101992003550080AD8B4F0D7020AD8B4E7D7060AF5
:1019A200D8B4D8D7EFD7000E2D6E000E2C6E2A5069
:1019B2002B10D8B41CD0010E2E6E04D0D8902A362B
:1019C2002B362E2A2BAEFAD7D8902C362D362A500B
:1019D200285C2B502958D8A005D02A50285E2B50BD
:1019E200295A2C80D8902B322A322E2EEDD72CC099
:1019F20028F02DC029F01200316E31B002D084944B
:101A020001D08484010EF6EC0DF0010EF6EC0DF01F
:101A1200849230380F0B6AEC0EF030500F0B6AECE8
:101A22000EF03150D8B405D0320E0400E82EFDD7A6
:101A32001200000E296E020E286E34EC0EF0120017
:101A420031503210D8B418D0010E336E04D0D89071
:101A520031363236332A32AEFAD731502F5C325019
:101A62003058D8A004D031502F5E3250305AD8901E
:101A720032323132332EF1D72FC02FF030C030F056
:101A82001200336E09D0800E05D0C00E03D0900E26
:101A920001D0D00E346E0DD03250010AD8B4F3D733
:101AA200030AD8B4F2D7010AD8B4F1D7070AD8B4D6
:101AB200F0D73304342634508009306E000EFDEC2A
:101AC2000CF01200010E326E010E42EC0DF0800E8F
:101AD200346E000E356E210E366E100E376ECBC090
:101AE20038F0396ACAC03AF03B6AC9C03CF03D6A74
:101AF20024EC0AF0800E366E000E376E7EEC0CF08F
:101B02001200800E346E000E356E0B0E366E100E05
:101B1200376EC8C038F0396AC7C03AF03B6AC6C0EF
:101B22003CF03D6A24EC0AF0020E326E010E42ECE9
:101B32000DF0800E366E000E376E7EEC0CF0120049
:101B4200030E326E010E42EC0DF0590E366E100E7F
:101B5200376E7EEC0CF00001C551D8A404D0790E8A
:101B6200386E100E03D0750E386E100E396E38C0F6
:101B720036F039C037F07EEC0CF01200F28EF28CA7
:101B8200000EF16E000EF06EF18CF18AF188F08693
:101B9200F088D09EF288829AB180000ED56ED580F0
:101BA200D582D594ABEC0EF0F28AD58E000E0001F0
:101BB200C56F1200800EF66E1D0EF76E000EF86EE7
:101BC20000EE51F010EE04F00900F5CFEEFFE55003
:101BD200E150FAE100EEB9F0130EEE6AE806FDE11B
:101BE20055905592000141EF08F02B6E000E2D6EBC
:101BF200000E2C6E03D004002C4A2D2A2B50286E86
:101C0200296A2C50285C2950800A2A6E2D50800A9D
:101C12002A58D8A01200EFD7B896000EAC6E190E53
:101C2200AF6E000EB06EAC84AC8A000EAB6EAB88A9
:101C3200AB8EAECF28F0AECF28F0949C948E1200DB
:101C420028502A02F3CF2CF0F4CF2DF028502B028B
:101C5200F3502D2629502A02F3502D262CC028F0AD
:101C62002DC029F01200000E2B6E000E2A6E07D036
:101C7200C80E04000400E82EFCD72A4A2B2A2A5058
:101C8200285C2B502958D8A01200F2D7000ED56E2E
:101C9200F294D580D582D5940B0ED76EDC0ED66E1B
:101CA200CD82CD9ACD98F28EF28ACD80D58E120059
:101CB2002A6E2F0E2A6408D03A0E2A6005D0000E32
:101CC200296E010E286E1200000E296E000E286E7B
:101CD20012002F6E2FC02EF02E3A83502E180F0BAB
:101CE2002E18836E010EF6EC0DF08482040000F0D3
:101CF200849212002A6E000E296E3A0E2A6005D0D6
:101D02002F0E2A6402D0010E296E29C028F0283035
:101D12001200000EC26E0C0EC16E9368800E946E9D
:101D22009268000E956E000E966E1200040E326ED0
:101D3200010E42EC0DF0480E366E100E376E7EEC40
:101D42000CF01200286E01D00400ACA2FDD728C00E
:101D5200ADFF12000B0ED76EDC0ED66E1200AECFA8
:101D620028F028501200F28EF28C1200F29EF29CA1
:101D72001200F28EF28C1200F29EF29C1200280CDB
:021D8200010658
:020000040020DA
:08000000FFFFFFFFFFFFFFFF00
:020000040030CA
:0E000000FF011F1FFF8385FF0FC00FE00F40A1
:00000001FF
